{
  "contractName": "CrowdXCampaign",
  "abi": [
    {
      "anonymous": false,
      "inputs": [
        {
          "indexed": true,
          "internalType": "uint256",
          "name": "campaignId",
          "type": "uint256"
        },
        {
          "indexed": false,
          "internalType": "string",
          "name": "title",
          "type": "string"
        },
        {
          "indexed": false,
          "internalType": "string",
          "name": "description",
          "type": "string"
        },
        {
          "indexed": false,
          "internalType": "uint256",
          "name": "goalAmount",
          "type": "uint256"
        },
        {
          "indexed": false,
          "internalType": "uint256",
          "name": "startTime",
          "type": "uint256"
        },
        {
          "indexed": false,
          "internalType": "uint256",
          "name": "endTime",
          "type": "uint256"
        },
        {
          "indexed": true,
          "internalType": "address",
          "name": "creator",
          "type": "address"
        }
      ],
      "name": "CampaignCreated",
      "type": "event"
    },
    {
      "inputs": [],
      "name": "campaignCounter",
      "outputs": [
        {
          "internalType": "uint256",
          "name": "",
          "type": "uint256"
        }
      ],
      "stateMutability": "view",
      "type": "function",
      "constant": true
    },
    {
      "inputs": [
        {
          "internalType": "uint256",
          "name": "",
          "type": "uint256"
        }
      ],
      "name": "campaigns",
      "outputs": [
        {
          "internalType": "string",
          "name": "title",
          "type": "string"
        },
        {
          "internalType": "string",
          "name": "description",
          "type": "string"
        },
        {
          "internalType": "uint256",
          "name": "goalAmount",
          "type": "uint256"
        },
        {
          "internalType": "uint256",
          "name": "currentAmount",
          "type": "uint256"
        },
        {
          "internalType": "uint256",
          "name": "startTime",
          "type": "uint256"
        },
        {
          "internalType": "uint256",
          "name": "endTime",
          "type": "uint256"
        },
        {
          "internalType": "address",
          "name": "creator",
          "type": "address"
        },
        {
          "internalType": "bool",
          "name": "exists",
          "type": "bool"
        }
      ],
      "stateMutability": "view",
      "type": "function",
      "constant": true
    },
    {
      "inputs": [
        {
          "internalType": "string",
          "name": "_title",
          "type": "string"
        },
        {
          "internalType": "string",
          "name": "_description",
          "type": "string"
        },
        {
          "internalType": "uint256",
          "name": "_goalAmount",
          "type": "uint256"
        },
        {
          "internalType": "uint256",
          "name": "_startTime",
          "type": "uint256"
        },
        {
          "internalType": "uint256",
          "name": "_endTime",
          "type": "uint256"
        }
      ],
      "name": "createCampaign",
      "outputs": [],
      "stateMutability": "nonpayable",
      "type": "function"
    }
  ],
  "bytecode": "0x6080604052600160005534801561001557600080fd5b50610b01806100256000396000f3fe608060405234801561001057600080fd5b50600436106100415760003560e01c8063141961bc14610046578063b5c892191461007d578063fca604d714610099575b600080fd5b610060600480360381019061005b919061063d565b6100b7565b6040516100749897969594939291906107ad565b60405180910390f35b61009760048036038101906100929190610596565b61023c565b005b6100a1610470565b6040516100ae9190610879565b60405180910390f35b60016020528060005260406000206000915090508060000180546100da9061099b565b80601f01602080910402602001604051908101604052809291908181526020018280546101069061099b565b80156101535780601f1061012857610100808354040283529160200191610153565b820191906000526020600020905b81548152906001019060200180831161013657829003601f168201915b5050505050908060010180546101689061099b565b80601f01602080910402602001604051908101604052809291908181526020018280546101949061099b565b80156101e15780601f106101b6576101008083540402835291602001916101e1565b820191906000526020600020905b8154815290600101906020018083116101c457829003601f168201915b5050505050908060020154908060030154908060040154908060050154908060060160009054906101000a900473ffffffffffffffffffffffffffffffffffffffff16908060060160149054906101000a900460ff16905088565b6000831161027f576040517f08c379a000000000000000000000000000000000000000000000000000000000815260040161027690610839565b60405180910390fd5b8082106102c1576040517f08c379a00000000000000000000000000000000000000000000000000000000081526004016102b890610859565b60405180910390fd5b600080549050604051806101000160405280878152602001868152602001858152602001600081526020018481526020018381526020013373ffffffffffffffffffffffffffffffffffffffff1681526020016001151581525060016000838152602001908152602001600020600082015181600001908051906020019061034a929190610476565b506020820151816001019080519060200190610367929190610476565b5060408201518160020155606082015181600301556080820151816004015560a0820151816005015560c08201518160060160006101000a81548173ffffffffffffffffffffffffffffffffffffffff021916908373ffffffffffffffffffffffffffffffffffffffff16021790555060e08201518160060160146101000a81548160ff0219169083151502179055509050503373ffffffffffffffffffffffffffffffffffffffff16817f5154aeaff3cf749fe129443a883255976e69ca5e2db27a8614526887fa298c35888888888860405161044995949392919061074c565b60405180910390a3600080815480929190610463906109cd565b9190505550505050505050565b60005481565b8280546104829061099b565b90600052602060002090601f0160209004810192826104a457600085556104eb565b82601f106104bd57805160ff19168380011785556104eb565b828001600101855582156104eb579182015b828111156104ea5782518255916020019190600101906104cf565b5b5090506104f891906104fc565b5090565b5b808211156105155760008160009055506001016104fd565b5090565b600061052c610527846108c5565b610894565b90508281526020810184848401111561054457600080fd5b61054f848285610959565b509392505050565b600082601f83011261056857600080fd5b8135610578848260208601610519565b91505092915050565b60008135905061059081610ab4565b92915050565b600080600080600060a086880312156105ae57600080fd5b600086013567ffffffffffffffff8111156105c857600080fd5b6105d488828901610557565b955050602086013567ffffffffffffffff8111156105f157600080fd5b6105fd88828901610557565b945050604061060e88828901610581565b935050606061061f88828901610581565b925050608061063088828901610581565b9150509295509295909350565b60006020828403121561064f57600080fd5b600061065d84828501610581565b91505092915050565b61066f81610911565b82525050565b61067e81610923565b82525050565b600061068f826108f5565b6106998185610900565b93506106a9818560208601610968565b6106b281610aa3565b840191505092915050565b60006106ca601083610900565b91507f476f616c206d757374206265203e2030000000000000000000000000000000006000830152602082019050919050565b600061070a601c83610900565b91507f737461727454696d65203c20656e6454696d65207265717569726564000000006000830152602082019050919050565b6107468161094f565b82525050565b600060a08201905081810360008301526107668188610684565b9050818103602083015261077a8187610684565b9050610789604083018661073d565b610796606083018561073d565b6107a3608083018461073d565b9695505050505050565b60006101008201905081810360008301526107c8818b610684565b905081810360208301526107dc818a610684565b90506107eb604083018961073d565b6107f8606083018861073d565b610805608083018761073d565b61081260a083018661073d565b61081f60c0830185610666565b61082c60e0830184610675565b9998505050505050505050565b60006020820190508181036000830152610852816106bd565b9050919050565b60006020820190508181036000830152610872816106fd565b9050919050565b600060208201905061088e600083018461073d565b92915050565b6000604051905081810181811067ffffffffffffffff821117156108bb576108ba610a74565b5b8060405250919050565b600067ffffffffffffffff8211156108e0576108df610a74565b5b601f19601f8301169050602081019050919050565b600081519050919050565b600082825260208201905092915050565b600061091c8261092f565b9050919050565b60008115159050919050565b600073ffffffffffffffffffffffffffffffffffffffff82169050919050565b6000819050919050565b82818337600083830152505050565b60005b8381101561098657808201518184015260208101905061096b565b83811115610995576000848401525b50505050565b600060028204905060018216806109b357607f821691505b602082108114156109c7576109c6610a45565b5b50919050565b60006109d88261094f565b91507fffffffffffffffffffffffffffffffffffffffffffffffffffffffffffffffff821415610a0b57610a0a610a16565b5b600182019050919050565b7f4e487b7100000000000000000000000000000000000000000000000000000000600052601160045260246000fd5b7f4e487b7100000000000000000000000000000000000000000000000000000000600052602260045260246000fd5b7f4e487b7100000000000000000000000000000000000000000000000000000000600052604160045260246000fd5b6000601f19601f8301169050919050565b610abd8161094f565b8114610ac857600080fd5b5056fea2646970667358221220452189f2338c197df79d597fa83372d78401b787d22e3a3a184c18bc48095d9864736f6c63430008000033",
  "immutableReferences": {},
  "source": "// SPDX-License-Identifier: MIT\npragma solidity ^0.8.0;\n\ncontract CrowdXCampaign {\n    uint public campaignCounter = 1;\n\n    struct Campaign {\n        string title;\n        string description;\n        uint goalAmount;\n        uint currentAmount;\n        uint startTime;\n        uint endTime;\n        address creator;\n        bool exists;\n    }\n\n    mapping(uint => Campaign) public campaigns;\n\n    event CampaignCreated(\n        uint indexed campaignId,\n        string title,\n        string description,\n        uint goalAmount,\n        uint startTime,\n        uint endTime,\n        address indexed creator\n    );\n\n    function createCampaign(\n        string memory _title,\n        string memory _description,\n        uint _goalAmount,\n        uint _startTime,\n        uint _endTime\n    ) external {\n        require(_goalAmount > 0, \"Goal must be > 0\");\n        require(_startTime < _endTime, \"startTime < endTime required\");\n\n        uint campaignId = campaignCounter;\n\n        campaigns[campaignId] = Campaign({\n            title: _title,\n            description: _description,\n            goalAmount: _goalAmount,\n            currentAmount: 0,\n            startTime: _startTime,\n            endTime: _endTime,\n            creator: msg.sender,\n            exists: true\n        });\n\n        emit CampaignCreated(\n            campaignId,\n            _title,\n            _description,\n            _goalAmount,\n            _startTime,\n            _endTime,\n            msg.sender\n        );\n\n        campaignCounter++;\n    }\n}\n",
  "sourcePath": "/home/master/Documents/CrowdX2/CrowdX2-SmartContract/contracts/CrowdXCampaign.sol",
  "compiler": {
    "name": "solc",
    "version": "0.8.0+commit.c7dfd78e.Emscripten.clang"
  },
  "schemaVersion": "3.4.16",
  "updatedAt": "2025-04-14T08:20:57.269Z",
  "networkType": "ethereum",
  "devdoc": {
    "kind": "dev",
    "methods": {},
    "version": 1
  },
  "userdoc": {
    "kind": "user",
    "methods": {},
    "version": 1
  }
}